{"abi":[{"type":"function","name":"getMessage","inputs":[{"name":"messageId","type":"uint64","internalType":"uint64"}],"outputs":[{"name":"","type":"tuple","internalType":"struct FutureProof.MessageMetadata","components":[{"name":"encryptedKeyCid","type":"string","internalType":"string"},{"name":"encryptedMessageCid","type":"string","internalType":"string"},{"name":"messageHash","type":"string","internalType":"string"},{"name":"unlockTimestamp","type":"uint64","internalType":"uint64"},{"name":"sender","type":"address","internalType":"address"},{"name":"recipient","type":"address","internalType":"address"},{"name":"createdAt","type":"uint64","internalType":"uint64"}]}],"stateMutability":"view"},{"type":"function","name":"getMessageCount","inputs":[],"outputs":[{"name":"","type":"uint64","internalType":"uint64"}],"stateMutability":"view"},{"type":"function","name":"getReceivedMessages","inputs":[{"name":"recipient","type":"address","internalType":"address"}],"outputs":[{"name":"","type":"tuple[]","internalType":"struct FutureProof.MessageMetadata[]","components":[{"name":"encryptedKeyCid","type":"string","internalType":"string"},{"name":"encryptedMessageCid","type":"string","internalType":"string"},{"name":"messageHash","type":"string","internalType":"string"},{"name":"unlockTimestamp","type":"uint64","internalType":"uint64"},{"name":"sender","type":"address","internalType":"address"},{"name":"recipient","type":"address","internalType":"address"},{"name":"createdAt","type":"uint64","internalType":"uint64"}]}],"stateMutability":"view"},{"type":"function","name":"getSentMessages","inputs":[{"name":"sender","type":"address","internalType":"address"}],"outputs":[{"name":"","type":"tuple[]","internalType":"struct FutureProof.MessageMetadata[]","components":[{"name":"encryptedKeyCid","type":"string","internalType":"string"},{"name":"encryptedMessageCid","type":"string","internalType":"string"},{"name":"messageHash","type":"string","internalType":"string"},{"name":"unlockTimestamp","type":"uint64","internalType":"uint64"},{"name":"sender","type":"address","internalType":"address"},{"name":"recipient","type":"address","internalType":"address"},{"name":"createdAt","type":"uint64","internalType":"uint64"}]}],"stateMutability":"view"},{"type":"function","name":"storeMessage","inputs":[{"name":"encryptedKeyCid","type":"string","internalType":"string"},{"name":"encryptedMessageCid","type":"string","internalType":"string"},{"name":"messageHash","type":"string","internalType":"string"},{"name":"unlockTimestamp","type":"uint64","internalType":"uint64"},{"name":"recipient","type":"address","internalType":"address"}],"outputs":[{"name":"messageId","type":"uint64","internalType":"uint64"}],"stateMutability":"nonpayable"},{"type":"event","name":"MessageStored","inputs":[{"name":"messageId","type":"uint64","indexed":true,"internalType":"uint64"},{"name":"sender","type":"address","indexed":true,"internalType":"address"},{"name":"recipient","type":"address","indexed":true,"internalType":"address"},{"name":"unlockTimestamp","type":"uint64","indexed":false,"internalType":"uint64"}],"anonymous":false},{"type":"error","name":"InvalidKeyCID","inputs":[]},{"type":"error","name":"InvalidMessageCID","inputs":[]},{"type":"error","name":"InvalidMessageHash","inputs":[]},{"type":"error","name":"InvalidTimestamp","inputs":[]},{"type":"error","name":"MessageNotFound","inputs":[]},{"type":"error","name":"SenderIsRecipient","inputs":[]}],"bytecode":{"object":"0x50564d0000d490000000000000010700c15000c000800320bcc9d466fa9448f7176ca8c82624340969765fc3d120ef76cfc04cae1a7347990480d50c000000000e0000001c0000002a000000300000003d000000500000005f000000620000006d0000007f0000009300000063616c6c5f646174615f636f707963616c6c5f646174615f6c6f616463616c6c5f646174615f73697a6563616c6c65726465706f7369745f6576656e746765745f73746f726167655f6f725f7a65726f686173685f6b656363616b5f3235366e6f777365616c5f72657475726e7365745f696d6d757461626c655f646174617365745f73746f726167655f6f725f636c65617276616c75655f7472616e73666572726564051302c08a6f0463616c6cc0976f066465706c6f7906c0aa8f820502c0177c1a001f004b007c00a500c300f0000e015d0162019d01bb01ee01f3011102160257025c028402060321037a039f03a403a903ae03b603f203fb03070448044d04550460046504690484048704c104e404e904f004f504130518057c058a05ab05ae054b0662067f06ac06bd06ec0609072507a107fa07b008be082a095e096d09c7096f0ba50bf70b1a0c490d4f0dbe0dc40dc70dd40dda0de40dee0df40d130e190e1f0e250e2b0e310e3a0e770e810e8e0ec20ec80ed10ede0ee40ee90e050f080f430f680f6e0f760fe40f7110b6100f11a711f5114112d8121e133b136c13d313df13f5135d147a149014f81405151b158315a31537163d16431649164c1659165f16691674167a16b616bc16c216c816ce16d416dd161a17241731174b1758175e1768177217781797179d17a317a917af17b517be17fa17041811182918ba19c219341b4c1c5a1d941dd41dfe1d311e341f921f59218321e121682272227f22a322a922be22d222d822ef2213233e235a237223782399239f23b323b923d023f423b724ce2408255325cc256b2678268c26aa26c226c826cb26f92656273c287028532970297229a229b129d829e7291a2a432a5f2a652a6b2a9a2a9c2aa22ab92add2a5e2bac2bc82beb2b442c5c2c6e2caa2c1a2d1a2e482e5e2e882fb42f3230a8312c326732953214337b334f347c345e35eb3526363c365e36bc362f3747376937fe371c38633871389038b138d038f538fb3825392b392d3933395d39633965396b399d39a339a539af39d639123a433a833abf3aeb3af53a1f3b583b813bc43bd13bf73b5a3cd23c353d7a3dd63ddc3df83d1a3e203e263e553e903ee33ef73efd3e143f383f4d3f533f6f3f713fd63f7340104133414b419241aa41bc41f9416942bb42e9425843b743664420453c4532478c470248134819485c4803496649b649214a734ade4aeb4a2e4b3c4b744b824bc54bd34b094c4c4cfe4c0f4d154d594da74dea4d384e604ebe4e8450ca50e45015512a515b517151a651c051f95113524452515260527052c95214539b530a5414545a5467549c54a954de54e755a35680575358c558cb58d1584059465979597f59855987599e59a459aa59b059b659bc59be59d559db59e159e759ed59f359215a275a4b5a9c5aeb5af75a195b365b575b635b825b9f5bbb5bc85be45b115c4b5ca95c135dc75d395e535e735ea15ee65e1d5f235f295f8e5f945fc75fcd5fd35fd55fdb5ff55ff75ffd5f166018601e603d607b60c260cc60fb603a619f61e5614e626b628c62f0622b639363b063e5634d648864ed641b6557658565d56526666c6677668666b066b6661c676b679467e76714686368a168c968d26801694369de69536ab36a706b786bd06b486ca36c336d686da76dd56d3a6e896ed26e056f316f976fa56ff56f2270fc774579e17a9511f07b10087b158475010a02013d0720000251050750100209501004a9009511807b10787b15707b1668951580008411e04911384911304911208000330740951820491128501006da784911584911504911484911408317400a0b01821750821858821948821a40d49808d4a707d4870752072e64175010087c01821818821910821a088217d4a808d4970ad48a0a98aa20d49808978820d4a8085108090050100a71173306300002be76066467330833090a281c7733076468330933000c0a08019511a07b10587b15507b16489515608411e06416491638491630491620800033074095682049162850100e35783907200002531704689517e08477e07b67186471837733083300100a010182671881771c3308f6de0286aa87d4005147c082d8ed4451471639933196003308fcd1b450aa876a33087aa19c53ab8721330012951160fe7b1098017b1590017b1688019515a00133020001283675501014b416330016951100fc951700037b70f8007b75f0007b76e800951500048411e0951700034927d8004927d0004927c8004927c0008317c0030a0b289b1d330018951160fe7b1098017b1590017b1688019515a0013302940028d87433001a9511a0fe7b1058017b1550017b164801951560018411e049213801492130014921280149212001831720010a0b28380150101c43159511c07b10387b15307b16289515408411f06476641733084050101ed975501220956e3200827218828318827b10827c088289088274828a828810d3c907d8c909d84a0adb790ac9b807d8a707d8b808c92309c98909c97909570906282201501022bf15501224b4735208369511d07b10287b15209515308411f082774911184911107b1764184911086497501026a1769551d08210288215209511303200009511807b10787b15707b1668951580008411f07b171082878292828b08829308957a207b1a18d87a06c86b0a7b1a08d8ba0cda660c828a10828818829410829918c8ca06d8a60cc88c0c7b1c7b18387b1a307b1b287b17207b19587b14507b13489517409518207b12403300283302242808738218108217087b87088217187b877b861082177b871850122a976e3200821730018218380182192801821a2001d49808d4a707d487075207b10038072000024921f8004921f0004921e8007b17e00049211801492110014921000104951700019518e0004921080128aafe9517c00050102c11638217c0007b17388217c8007b17308217d0007b17288217d8007b17209517a00050102e59fe501230be6c501032effe5012341c6e52073e5012365f6dc9c602d8c606d84a0a821c38c99c0cc9ac0cc96c0cc9b707c98707c90306d4c707d42608d47808d42707988820977720d487075107090050103824146407646850103a9b7783788369330733003c0a080182781082771814090000000001000000d38909d479099888208888019478939851080532009511f87b1033083000028388330701330933003e0a0833024028146d501240116d52093950124297723300440a013302462826715012462371501048a28217087b67188217107b67108217187b670882177b6750124a346d320000829210d3360a7b1a28d8360ad8cb0c821028da0c0a64308288187b18208298187b1818c94209c9a9087b1828d8a9087b1408d8420a50124ebf6c510a2a64767b13507b10588217087b17609517709518507b146833005033024028786c501252f66f32005010542613501256696c5209259511c07b10387b15307b16289515408411f064766417501058d77250125a936b3200009511a07b10587b15507b16489515608411f0828b10828a18828c0882867b1a107b1c08d4ac08d4b60ad48a0a98aa207b1b18d4b808978820d4a8087b17520855829718829810829a0882997b19207b1a287b18309518207b1738646750105ca973956720d86708821a0850125e4a6f821818c88a0ad88a08821b10c8b808821b7bba107bb9087bb77bb818501260a66a3200003302330c3303330601821740d87207821948d39c08d89c09da8709821b50d8b307821a58d3a608d8a60ada870ad3b307d48707da790a510af1008218c828087b1268d82807821908c8c909c87909d3c90a7b1c60d8c90bdaa70b821710c837077b1370d8370a821c187b1678c86c0cc8ca0ac87b0bd87b07c8a707d49707d4b809d47909d4b707989920977720d497075207fd009517a0005010649f71821720821868c88707d88708821928821b60501266b56d821830821a70c8a808d8a80a821c38821678c86c0cc8ca0a501268686c5208bc008219b8008218b000821aa800821ba0007b1b80007b1a88007b189000951880007b19980050106a7972821868958720d88708821a6050126c176e821870c88a0ad88a08821678c886066472649c64a328e5fe821840821720c88707d88708821b4882192850126e2b6d821c50821830c8c808c88b0bd88b0ad8c808821c58821638501270a56f5208324921d8004921d0004921c8009518c0004921c0005010720072955100ff8210f8008215f0008216e80095110001320000951180fe7b1078017b1570017b166801951580018411f0829a7b1a30829a087b1a20829a107b1a188299187b1908828a7b1a8289087b19288286108288187b18387b17407b1838017b1630017b19280195174001951820017b1a200133007433025628bb69821a40017b1a10821948017b1948821850017b1850821758017b17587b17d8007b18d0007b19c8007b1ac0008217087b17f8008217187b17f0008217207b17e800951700019518e0009519c000821a307b1ae00050107626fd821300017b1330821408017b1420821a10017b1a08821c18017b1c188217957220d87207821928c87908d89809da7709c86909d86907821b38c8b707821b587b1b78821b507b1b70821b487b1b688216107b16607b1c98007b1a90007b1488007b1380007b17b8007b19b0007b18a8009517a000951880009519607b12a000330078951100ff7b10f8007b15f0007b16e800951500018411f0829a187b1a58829a107b1a50829a087b1a4882997b194033026228f66a95671fd86708821a4850127a166c821850c88a0ad88a088477e0821b08c8ab0bd8ab0a821c58821618c86c0cc8c808c8a808821a20c89a0a821c30c87c0cd87c07c87a0ad39a06d89a09da6709c8b909d8b907c887078218407b8a087b8c7b89107b8718955180fe8210780182157001821668019511800132005208429511d07b10287b15209515308411f0827810827a088277978820988b204911187b177b1a0864187b1b10649750107ec76f9551d0821028821520951130320000821808027b1840821900027b19388217f8017b1730821af0017b1a287b1888017b1980017b1778017b1a70018217b8007b17a8018217c0007b17a0018217c8007b1798019517b00195189001951970017b169001502082005afb330c33064911783302821bb801821ab00182172898793b821430974805d48909977805c8b9097b1a20c8a8087b18c000d8a808c88909d3b90a7b19c800d8b909daa809821a3898a73b821840978805d478038210c8018217c00198483b97aa05d4a808c87808c80303d8780ac83a0a82139000c889097b19b800d88908c8a8087b18b000821a788214207b1b187b1b98007b17087b17a0007b10107b10a80001821728d87c07821930d39608d89609da8709821b38d8ba0064a7821a40d3a208d8a20ada800a7b1778d3b707d48707da790a510ae9017b12487b16507b1c588219a000d494078218a800821a9800d4a808d48707987720d49808978820d48707821cc8008210c000821bb8005207e3018217609578207b188000d87807821868c878097b199000d88906da7706c836067b168800d83607821670c87606821220d82003821818d38c0ad88c09daa309821a08c9ab07d8ab0a7b1a707b1bb800821b10821ab000c9ba0b821a70c9ab0bd8970ac9ab0bc9970ac98c09c93909c920077b1750017b1958017b1a6001951850017b1b68017b146864477b1cc8007b10c00050208400b76d821780006479821a8800d4a7077b167082189000d46808d48707987720d4a808978820d487075207210195173001649850208600466c821a3001821738018218400182194801821bb0007b1be800821bb8007b1be000821bc8007b1bd800821bc0007b1bd0007b1908017b1800017b17f800951710019518f0009519d0007b1af000502088008503821728017b17b000821720017b17b800821868958420d88408821a980050228a00bb68821818017b18c8008218a000c88a0ad88a08821ba800c88b0b7b1ba800821c5895cc0188c801821650c88606d46c08888801821b10017b1bc000821b78c8b808d8b80b821248c8b2027b1998007b1aa000821780007b1760821790007b176882138800648a28e8fd82178218c0007b788218c8007b78088218b8007b78108218b0007b78189551d0fd9517000282702882752082761895113002320000951120ff7b10d8007b15d0007b16c8009515e0008411f0828b10828218828608828cd42608d4bc0ad48a0a98aa20d4b808978820d4a8087b17385208d5008297187b17188297107b17208297087b172882977b173095c7207b1708d8c707c876087b18d86806da7706c8b606d8b607c827077b17104921b8004921b0004921a000209518a0004921a80064c750208c00dd6b50228e00f265330090009511d0fd951a00027ba0287ba5207ba618951530028411f08296829a087b1ac800829a107b1ac0008299187b19b800828b7b1b608289087b1968828a107b1a90008288187b177b18707b18e8017b1ae0017b19d8019517f0019518d0017b1bd00133008000330256289e63502292006566320000330096000a0b3302980028aa6950229800a7695207970050229a00076433009c0033024c286c6650229e00fa653300a000951100ff7b10f8007b15f0007b16e8009515000133022c0328f9665022a2006d665020a400daf35022a6003e625020a80092fe5022aa009a6352073f5022ac00dc62c9c602d8c606d84a0a821c38c99c0cc9ac0cc96c0cc9b707c98707c90306d4c707d42608d47808d42707988820977720d4870751070a005020ae00a009640764685020b000166d8378836933073300b2000a0801827818827910827708d49808887701948751070532009511f87b103308300002838833070133093300b4000a083302b600289a625022b600976252093f5022b8001c683300ba000a013302bc0028a8665022bc00a5665020be00aa8217087b67188217107b67108217187b670882177b675022c000b462320000829210d3360a7b1a28d8360ad8cb0c821028da0c0a64308288187b18208298187b1818c94209c9a9087b1828d8a9087b1408d8420a5022c4003e62510a2d64767b13507b10588217087b17609517709518507b14683300c6003302b60028f4615022c800726532005020ca00a1089511f0fb7b1008047b1500047b16f803951510048411f0828c10828618828b08828a7b1b607b1650d46b087b1a8800d4ca0ad48a0a98aa207b1c58d4c808978820d4a8085208eb057b17088297187b17708297107b17688297087b17800082969517d003821888005020cc000768821a688219707b1678d4a60782188000d49808d48707987720d4a808978820d4870752079f058217789578e0007b1840d8780b82188000c8b80c7b1c38d88c08dabb08951c000382cbe8007b1b2082cbe0007b1b2882cbd8007b1b3082cbd0007b1b48c88a06d8a608c898087b1818492cc800492cc000492cb800330be0009518b0037bcbb0005020ce00b568821718951b00037bb7687bb6608217387bb7588217407bb7508217207bb788008217287bb780008217307bb778951790039518700395195003821a487bba705020d0008cf6821758821950d479091406e0ffffff0000000082178800d8670782186094877b195894975107cb04951800038287a8007b17388287a0007b1740828798007b1748828790007b175082178800837820951730035020d200dc66821b70821a68d4ba09821778d867078218800094877b1930949751077c04821748037b1710821740037b1718821738037b1720821730037b1728821678821850d868046482821c8000821848d3c803d8c8096480da3409821840c9a807d8a80a821838c9b80bc9ab0bd8970ac9ab0bc99708c9c009c94909c9620a836720951c00037bca107bc9187bc820951810037bcb285020d4007f67821738951b00027bb7c8008217407bb7c0008217487bb7b8008217507bb7b0008217107bb7e8008217187bb7e0008217207bb7d8009517f0029518d0029519b002821a287bbad0005020d6004df51406c0ffffff0000000082178800d867078218609487821858948751079503821708037b1738821700037b17408217f8027b17488217f0027b175082178800837840951790025020d800aa65821778d867078218800094878218309487510753038217a8027b17188217a0027b1720821798027b1728821790027b1730821678821850d868036482821c8000821a48d3ca08d8ca0964a7da8309821a68821b40c9ab08d8ab04821b70821a38c9ba0bc94b0bd8980ac9ab0bc99808c9c709c93909c9620a836740951c00027bca707bc9787bc88000951870027bcb88005020da004e66821738951b00027bb7288217407bb7208217487bb7188217507bb7108217187bb7488217207bb7408217287bb738951750029518300295191002821a307bba305020dc0024f4140600000000010000007b16501407a0ffffff000000005022de00f35f51076a02951800028287687b17308287607b17388287587b17408287507b1748821788008378609517f0015020e0007f648212f0018213f80182190002821a0802821778957b60d87b0c82178000c8c706d87607dacc07821c68c8c707d8c70c821870c88c0c7b16b8017b1bb0017b1ae8017b19e0017b13d8017b12d0017b17c0019517d0019518b0017b1cc8013300e200330224283b628217509577805022e4004f5f5107c6018217880083788000951790015020e600f66382129001821398018219a001821aa801821778957b8000d87b0c82178000c8c706d87607dacc07821c68c8c707d8c70c821870c88c0c7b1658017b1b50017b1a88017b1980017b1378017b1270017b17600195177001951850017b1c68013300e80033027c28b161140600000000010000007b1650140760ffffff000000005022ea00b45e51072b01821788008378a000951730015020ec005b63821230018213380182194001821a4801821778957ba000d87b0c82178000c8c706d87607dacc07821c68c8c707d8c70c821870c88c0c7b16f8007b1bf0007b1a28017b1920017b1318017b1210017b170001951710019518f0007b1c08013300ee0033027c281661821750957740ff5022f000295e5107a000821788008378c0009517d0005020f200d0628212d0008213d8008219e000821ae800821778957bc000d87b0c82178000c8c706d87607dacc07821c68c8c707d8c70c821870c88c0c7b1698007b1b90007b1ac8007b19c0007b13b8007b12b0007b17a0009517b000951890007b1ca8003300f400330224288b608217088218307b78188218387b78108218407b78088218487b785022f6008661320000951120ff7b10d8007b15d0007b16c8009515e0008411f0828b10828218828608828cd42608d4bc0ad48a0a98aa20d4b808978820d4a8087b173852086b8297187b17188297107b17208297087b172882977b173095c7207b1708d8c707c876087b18d86806da7706c8b606d8b607c827077b17104921b8004921b0004921a000209518a0004921a80064c75020f800ef625022fa00045d5020fc0039f95022fe00e05d320000330002010a0b330204012825615022040122615207b50050220601825b330008013302c20028e65d50220a01745d33000c01951180fe7b1078017b1570017b166801951580018411f082897b19188289087b19108289107b19088286187b17951740013300b20328764350220e01ca5d5020100137eb502212019b5950201401defe50221601f75a52073f50221801395ac9c602d8c606d84a0a821c38c99c0cc9ac0cc96c0cc9b707c98707c90306d4c707d42608d47808d42707988820977720d4870751070a0050201a01fd006407646850201c01736483788369330733001e010a0801951160fe7b1098017b1590017b1688019515a001502220014b5f330022010a0b330224012826605022240123605207970050222601835a3300280133024c28e85c50222a01765c33002c01951100ff7b10f8007b15f0007b16e8009515000133021e0328755d50222e01e95c5020300156ea50223201ba58502034010ef550223601165a52073f502238015859c9c602d8c606d84a0a821c38c99c0cc9ac0cc96c0cc9b707c98707c90306d4c707d42608d47808d42707988820977720d487075107090050203a011c6407646850203c01936383788369330733003e010a08019511f87b10330830000283883307013309330040010a08019511807b10787b15707b1668951580008411e06416828c829a08828b08829395c41f7b6c58d8c402c82b0c7b6340d83403d3ac047b6a48d8ac0ada430a7b6b50d8bc0bda220b828010828418829318829210c80b0bd80b08c84808d33809d93808d82b0cda9c08d32b0bd4b909db980a510a23017b63307b62387b67109517e08479e06491826758d407077b6420826850d44808d487079877207b6028d40808978820d487075207f30083978168587b69180a0101826918829018829810829308d40807883a01947a510aca008299826758957a20d87a0c7b6c58826450c84c0c7b6a08c89a0a7b6918d89a0bc8c307c8b707d33709d83702da9b02826b48d3b709d87b07826b40d8ab0bdb970b7b6c48d84c07826958da9907826928c8790cd89c0a826420c8a404c8c8077b6850d887097b6058c8400ac8a909c87202d87207c89707826a30d3a709d87a07826038d8200adb970ad30207d49707db7a0b520b348267108268187b78208268087b787b73288268487b78088268507b78307b7c108268587b78387b741850224201ff5732005020440155fe00951180fc951a00037ba0787ba5707ba668951580038411e06416829b08828c088293828ad3cb02d8cb04d8a300da20047b6bf8007b6c1801c9cb0bc90b027b63f0007b6a1001c9a30b88bba00085bb018293108280108e2cdb2c0b6402829c18828018c92308c94809d848087b63e800d8230a7b6ce000c90c0cc9ac0cc98c0c8fc88e9adbc80ad4c909db9a0b510bde047b67c8009517e0847ae064a182691001d429077b60000182681801d40808d487079877207b620801d42808978820d487075207af04839883a77b68d8007b6ad0000a01018267d000827218827810827908d4280a889b0194ab510b8104827a826b1001c8ab0bd8ab0a826c1801c89c0cc8ac0cd39c07d89c09da7a0982670801c88707d88708826a0001c8a202c82808c87909d87907c8780a8267f000956800027b87e0008267f8007b87e8007b6b00038267e8007b87f0008267e0007b87f800956b00037bbc087bb91095672003956800039569e0027bba1850204601fbfc9517e0847ae064a1956b000182b70882b8d478081407e0ffffff0000000082b910d8790782b91894977b68d00094875107d103956800038287587b67a0008287507b6780008287487b67a8008287407b6788008287387b67b0008287307b6790008287287b67b8008287207b6798008267d80083782083a77b6ac0000a01018267c000827218827810827908d4280a889b0194ab510b6603827a826b1001c8ab0bd8ab0a826c1801c89c0cc8ac0cd39c07d89c09da7a0982670801c88707d88708826a0001c8a202c82808c87909d87907c8780a8267f0007b6760028267f8007b6768027b6b80028267e800956b00027bb7708267e0007bb7787bbc88007bb990009567a00295688002956960027bba980050204801e3fb9517e08479e064911407c0ffffff0000000082681001d878078268180194878268d00094875107c302956800028287d8007b67708287d0007b67508287c8007b67788287c0007b67588287b8007b67c0008287b0007b67608287a8007b67d0008287a0007b67688267d80083784083977b69d8000a01018267d800827218827810827908d4280a889b0194ab510b5602827a826b1001c8ab0bd8ab0a826c1801c89c0cc8ac0cd39c07d89c09da7a0982670801c88707d88708826a0001c8a202c82808c87909d87907c8780a8267f0007b67e0018267f8007b67e8017b6b00028267e8007b67f0018267e0007b67f8017b6c08027b69100295672002956800029569e0017b6a180250204a01d5fa956b000282b7287b67f80082b7207b67f00082b7387b67e80082b7307b67e00082b7487b67d80082b7407b674882671001957a6050224c011f5a82b7587b674082b7507b673882670801c87909d87907826b0001c8b7077b67b8017b69b0017b68a8019567c0019568a0017b6aa00133004e013302b6002888538267c8017b67308267c0017b67288267d8017b67208267d0017b671882671001957a800050225001b55982670801c87909d87907826b0001c8b7077b6758017b6950017b68480195676001956840017b6a400133005201330240282b53956b000182b77082b87882b96082ba68826bc8007bb7f0007bb8f8007bb9e0007bbae8008267187bb7d0008267207bb7d8008267287bb7c0008267307bb7c8008267387bb7b0008267407bb7b8008267487bb7a0008267d8007bb7a8008267e0007bb790008267e8007bb798008267f0007bb780008267f8007bb788008267507bb7708267707bb7788267587bb7608267787bb7688267607bb7508267c0007bb7588267687bb7408267d0007bb748826780007bb7308267a0007bb738826788007bb7208267a8007bb728826790007bb7108267b0007bb718826798007bb78267b8007bb708955180fc9517000382707882757082766895118003320050205401e3f800951b000382b7d00082b8d80082b9c80082bac000d49808d4a707d48707520710033807200002951a0002492a9800492a9000492a88007ba78000492ab800492ab000492aa000049517c0029518a00295198002492aa8005020560137fa8217c0027b17d8008217c8027b17d0008217d0027b17c8008217d8027b17c0008217e0027b17b8008217e8027b17b0008217f0027b17a8008217f8027b17a0009516000382677b1798008267087b1790008267107b1788008267187b1780008267207b17788267287b17708267307b17688267387b17608267407b17588267487b17508267507b17488267587b17408267607b17388267687b17308267707b17288264788263800082628800826c9000826b9800826aa0008269a8008268b0008267b800951060017b1010951680017b16089516a0017b167b1778017b1870017b1968017b1a60017b1b98017b1c90017b1288017b1380017b14b8018217287b17b0018217307b17a8018217387b17a0018217407b17d8018217487b17d0018217507b17c8018217587b17c0018217607b17f8018217687b17f0018217707b17e8018217787b17e001821780007b171802821788007b171002821790007b170802821798007b1700028217a0007b1738028217a8007b1730028217b0007b1728028217b8007b1720028217c0007b1758028217c8007b1750028217d0007b174802951760029518400295192002951a0002951be001951cc0018216d8007b16400250205801e923951800028287607b17d8008287687b17d0008287707b17c8008287787b17c0009517400150205a0176e0821758017b17b80082165001821848017b18b000821a40017b1aa8008219c0007b19f8008219c8007b19f0008219d0007b19e8008219d8007b19e0007b1718017b1610017b18080195172001951800019519e0007b1a000150205c01b8e08219b800821bb0008210a800d49b07d46008d47808988820d46707977720d4870752075f646482172801821838017b18d80082132001821a3001d3b706d8b70cd80308da680cc94a06c9c602d8c606d84a0a821cd800c99c0cc9ac0cc96c0cc9b707c98707c90306d4c707d42608d47808d42707988820977720d4870751070a0050205e01aff564076468502060012559837883693307330062010a08013308491718491710491708490732009511a07b10587b15507b164895156050226401994e502066017057821733084916184916104916087b6750226801944d32009511b07b10487b154095155050226a01244e50206c014e56491118491110490111330704641849110850206e013756390824000256183f0b2003240002400133083000028388330701330924330070010a080182883309ffaa981c958801888901d4980a88aa014917187b787b79087b7a1032009511f87b10502072018733027401828918828a10828b0882887b79187b7a107b7b087b78320032009511807b10787b15707b166895158000502276013f5250207801a1568217188218108219087b16207b17387b18307b192895174095182050207a01eb5650227c011a4e32009511b07b10487b154095155050227e01434d502080016d554911184911104901413307046418491108502082015655390824000256183f0b2003240002400133083000028388330701330924330084010a08019511b07b10487b15407b16389515508411f064728289827408828c088273959a1fd89a00c80c0984aae07b1308c8a303d8a30bc8490ac8ba0ad39a06d89a07da6b07822b18d8c90c828610822210828818da000cc86c0cd86c06c82c09c89707d8c90cd89709c8b808c86808c8c808c8980c8ec88e79dbc809d4c7088ea6db8906520653821808d88308d34a09d84a06da9806d82708d3bc09d8bc0bda980bd32708d49808da860b520b2c7b13107b1a187b17203307409518107b1c28502086016f549551b0821048821540821638951150320050208801d9fe951140ff7b10b8007b15b0007b16a8009515c0008411f082897b19388289087b19308289107b19288288187b182064769517800050208a01f1dc821980007b19821788007b1718821a90007b1a10821b98007b1b088218207b18588218287b18508218307b18488218387b18407b1b787b1a707b17689517609518407b196050208c01a7fe8217087b67188217107b67108217187b670882177b67955140ff8210b8008215b0008216a8009511c0003200828a18828b10828908d4ba0a889b0194ab510b318288958a1fd88a08c8980884880184aae095a920d8a90ac8a80bd88b08daaa084917187b797b7b087b7810280d019511f87b1050208e01dbfd9511807b10787b15707b1668951580008411f0827a10827b18827c088272d4cb0bd4a20cd4bc0c98cc20d4ba0a97aa20d4ca0a520acb00829b18829c108296829708d4c609d4b70ad4a909989920d4ca0a97aa20d4a9095209a7007b17287b1c307b1b38828b18828a108287828908d4a7087b1b207b1910d4b909d498089888207b1a18d4a909979920d4980852087183227b120864687b17502090012c5583778368821908330092010a018217c86707d86708821b28821910502294018c4d821c30821818c8c808c88b0bd88b0ad8c808821c3882162050229601055052082049115849115049114895184049114050209801645250229a01f14a320000821970018217780182188001821a88017b1a28017b1820017b17180195173001951810017b19100150209e01dbfd82194801821a400182183801821730017b18687b1960d48909d4a708d498089888207b1a08d4a909979920d49808520842017b16f0007b16708216787b16f800821880007b1800019518f000821988007b1908017b17585020a001d051821038821770c80708d87809821340c83607c8970ad36a0bd86a07dab907821b18d3ba09d8ab0a821b20d88b08821248821c8000c82c0bdb9a08d8cb09821c50821a8800c8ca0ac8a909c8b707d8b70ac8a909821b28d3b90ad89b09821630d8760bdaab09d36707d4a707db79085208a600821858958720d88708821a68c88a09d8a90ada880a821608c86a0ad86a08821460c884048218707b1890007b10d0008218787b1898007b17b0007b13d800821780007b17a0007b12e000821788007b17a8007b19b8007b1ce8007b1ac0009517d0009518b000951990007b14c8005020a20196fd8217108218607b78187b76108218687b78088218587b78955150fe8210a8018215a001821698019511b0013200005020a401a7ef951160ff7b1098007b1590007b1688009515a0008411f08282828308828410828018829b829a08829c10829918380820000264764911184911104911087b187b19387b1c307b1a287b1b207b10587b14507b1348951760951840951920641a7b12403300a601951150fe7b10a8017b15a0017b1698019515b0018411f082ab187b1b2882ab107b1b3082ab087b1b1882aa7b1a20828a187b1a50828a107b1a48828a087b1a4082887b18388296829a08829b108298187b17107b1888007b1868017b1b80007b1b60017b1a787b1a580195177001951850017b16500133009c01282ffc821770821878821960821a687b67107b68187b697b6a085022a801684a320052093e9511d07b10287b15209515308411f0828918828a10828b0882887b187b1b087b1a1064187b19185020ac01844f9551d08210288215209511303200005209359511d07b10287b15209515308411f082884911184911107b1864184911085020b0014e4f9551d08210288215209511303200005209419511d07b10287b15209515308411f0828910828a0882889799209899204911187b187b1a0864187b19105020b4010c4f9551d0821028821520951130320000951160ff7b1098007b1590007b1688009515a0005022b6018c4c82997b67384916784916704916689568607b696033075020b801c74e5022ba01114c5020bc01bb4e390824000256183f0b200324000240019517e08479e07b693064913307300002837783993308400a065022be01854732005020c201844e49111849111049012233070464184911085020c4016d4e390824000256183f0b20032400024001330830000283883307013309243300c6010a08019511f07b10087b15828910828c08828b82881897923f98ca01d42a02978a3f989901d49a0a97cc3f98b901d49c0c98830184bb019ab888b50184c97fd2a804d2280adbbc09d2380b88982094a8d4b40c94c8ab85187b797b7a087b74107b7b18821008821595111032003300c8019511b07b10487b15409515503302c0012895458289828218828a0882881095931fd89309c89a0cd8ac0ada990ac88a0ad88a08c8820298a90597283bd4980898290597aa3b98cb05d4ba0a97cc3b983b05d4cb0b7b7b7b7a087b79187b781032007b173864868217a8008a79037b1988003307ff3308ff5020cc0109507b17a8007b18a000d468087b18308216708369807b19183307ff3308ff5020ce01e64f646a886c80007b1c68821930dbc90893a8ff648b8219a800821838d49808dac70893a8ff8217a00093c793c97b152094587b1838945b7b1b3094597b19a80094577b17a00082158000645782167864688219185020d0018d4f7b17187b18108217980082189000821988005020d201754f7b17087b18645764688219285020d401894f8215d48505821968821810da980582189000821a70daa805821608d47606821718da970682179800daa70682178000821878821988005020d601274f821968939893978219209496949594979498821940821aa000e0a902d2a808821a488219a800e09a0ad29707821b50821c30e0cb0bd25c0c821558821938e09505d29606d46505d4cb0bd4a707d482088219607b98087b977b9b187b95108210c0008215b8008216b0009511c8003200821bc0008217c8008218d0008219d8007b1658821a087b1a50821a107b1a48821a187b1a40821a207b1a78821a287b1a70821a307b1a68821a387b1a607b1998007b1890007b1788009517a00095188000951960951a407b1b80003300da01951138ff7b10c0007b15b8007b16b0007b17608287107b17588287187b175082957b15a800829608829b18829910985c3d976703d4c70798663d979c03d46c0298993d97bb03d4b909975c038e7b88c600017b1c70856501db7b058e978e2bdb970b82877b17488287087b1740d4920982a7107b17980082a7187b17900082a77b17800082a7087b1778db9b058dc980007b19283307ff3308ff3300ca0128da4d8217b8008218b0008219a800821aa0007b17f8007b18f0007b19e8007b1ae000951700019518e0005020dc013c4c9551c0fe8210380182153001821628019511400132009551908210688215609511703200821708d87c07821910d39608d89609da8709821b18d8b307821a20d3a208d8a20ada870ad3b307d48707da790a510a15014911584911504911484911407b1c607b16687b13709517609518407b12787b12387b1c307b13283300e0019511907b10687b15609515708411f08272827308827b10827718828c828a0882891082881849111849111049110849017b18387b19307b1a287b1c207b17587b1b507b134895174095182064197b12403300de019511c0fe7b1038017b1530017b162801951540018411e0828a7b1a38828a087b1a30828a107b1a288288187b182082987b18188298087b18108298107b1808829618827818827910827a0882777b1818017b1910017b1a08017b1700019517c000951800013300d801288e4a821c3082123895cc0188c701c87606d46c07887701821828c88707d88708c88202647328c1fe5022e20124443200951110ff7b10e8007b15e0007b16d8009515f0008411f0828218828c10828b828608d42c0888ba20946a948a520ac6018298187b18488298107b18408298087b183082987b1828827918827810827a0882777b1790007b1a98007b18a0009517b000951890007b19a8007b12387b1c187b16107b1b085020e4012b0e82192895971fd897086496821930c8890ad89a03649cda8803821b40c83b087b182097883b98a905d4890997aa3b987705d4a702886a2094ca821748d4b707947a8213b00094a9821cb80094a2c832027b1230d83208c88c0bc89b0b7b1b28d3cb09d8cb00da980082170895791fd87906821810c86807d88708da6608821418c8840297263b987b05d46b0b97773b989905d49707c87306d83609c89c07c8b703d3c30bd8c30cdab90c821b20821740d87b09821748c8970798bb0597793bd4b909987705821bc8008218c00094a994a7c8b707c88909d8890ac8a707c89000d8900ac87a0ad84207821938c8790998220597973bd47207989905c8b909c88707d88708c89808c87c0cd87c07c887077b16508218307b18707b13588218287b18787b1c607b1080007b17689517709518507b1a88003300e601951160ff7b1098007b1590007b1688009515a0008411f08289187b19208289107b19188289087b191082887b1808827218827310827608827c28c7fc955110ff8210e8008215e0008216d8009511f0003200951180fd951900027b90787b95707b9668951580028411e064168283828908828b10828c18827818827210827a0882777b6858027b6250027b6a48027b6740027b6c487b6c18027b6b507b6b10027b69407b69080295672002956800027b63387b6300023300e80133025628303f956a000282a73882a83082a9287b67107b6818d478087b69208897017b68980094875107c805826720027b67289567e001956840025020ea01b2478269e0018267e8018268f001826af8017b6ab8017b68b0017b67a8019567c0019568a0017b69a0015020ec014ef88262c0018263c8018264d001826ad801956c000282c95882c85082c74882cb40826c107b6c5801826c187b6c5001826c207b6c4801826c287b6c4001956c00017bca787b6470017b6368017b6260017b69707bc998007b68787bc890007b6780007bc788009567800195686001956940017b6b90007bcb80005020ee01a8fc826b288262208e2788b820858801db2708826c188ec7826a108ea9daa70982679800da78095109cf0184bbe07b6b309517e08477e07b67880064718267707b67f8008267787b67f000826780007b67e800956700019568e000826990007b69e0005020f001e20a3300492698003303330b33043302330c956800018287107b6790008287187b6780008289828a0882678800826890007b7810826880007b78187b797b7a08330920017b6990008267307b6b8000d87b07857b01944b01d4c207947b01826838c89808826a40c80a0a82695082679800c87909826748c83707520b90017b64607b62687b6c707b6378826b9000d8b80bc8ba0ad30a02d80a0cda2b0cc89c0cd89c02826b9800d8b909c89707c82707d4c809d4a707d47909989920d4c707977720d497077b60585207d4039567a0005020f2019c438267a0008269a800826ab000826bb8009518e08488e064817b8b187b8a107b89087b87826788005020f4010846826c880082c782c80882c910957701887a01c8a80882ca18d4870b88bb01c89b0bd89b09c8a9097bc77bc8087bcb107bc91882679000957220d87208826758c88709d8790ada880a82679800c87a0ad87a08826378c8830382678000957820d8780b826760c8b704d87407dabb07826b68c8b707d8b70b826c70c8bc0c649064297b6a9800648b647228b8fe64a8d4cb07d48208d487075107f501826738957820d87807826a40c87a09d8a90ada770a826750c87a0ad87a07826b48c8b707d4a80bd49707d47b0b98bb20d4a707977720d4b7075207c502956720015020f6018d42956800018287387b6790008287307b6788008287287b67788287207b678000826b2828980182649000826328826b30d33b0b826c18d4cb0b826210826c20d42c0cd4cb0b510b2101d8480bc8ba0ad30a02d80a0cda2b0cc89c0cd89c02826b9800d8b909c89707c82707d4c809d4a707d47909989920d4c707977720d49707520738029567c0005020f80100428267d8007b6790008267d0007b6780008267c8007b67788267c0007b677082672897773b9878387b6898009a8980003307ff3308ff5020fa01ab457b67687b68503307ff3308ff826998005020fc01bb457b67587b6860826750d487077b6750826798009579803307ff3308ff5020fe019945826b980088b98000826a50db9a08826c58826a68d4ca0ada970a93b8ff93baff826b60939b939c826770e0a707826978e0890982688000e0c80a82689000e0b80b9518e08488e064817b8b187b8a107b89087b878267880050200002c8438263288262100198373f826920979801d4870798983f826a1897a901d4890998a83f972a01d48a0a973801958b019518e08488e064817b8a187b89107b87087b8b95674002330008022879434926800049167849268800492690000197bb037b6b98008db980003307ff3308ff50200202a2447b67587b68708267288a79033307ff3308ff50200402b0447b67687b6860826858d487077b6758826798008379803307ff3308ff502006028e44826b980088b98000826a58db9a07826c60826a70d4ca0ada980a93b7ff93baff939c826b68939b826878e0a80282688000e0780482688800e0b80382689000e0c80a826920989b3f826818978c01d4cb0b988c3f826810978801d4c808826c2898c73f979901d4790997cc01d4c407d49209d48a0ad4b30b9518e08488e064817b8b107b8a187b89087b8795674002502008028642955180fd951700028270788275708276689511800232000050200a028beb9511b07b10487b15409515508411f08272827308827b10827718828c828908828a108288187b18187b1a107b19087b1c7b17387b1b307b132895172064187b122050200c0261f99551b0821048821540951150320052093f9511c07b10387b15307b16289515408411f064766417502010025b3f821733084916184916104916087b679551c08210388215308216289511403200005209439511c07b10387b15307b16289515408411f064766417502014021b3f80171082188219087b67104916187b687b69089551c0821038821530821628951140320000502018021e4180173c977720821820d467078219107b19508219187b19487b18407b175895176095184050201a025f4150221c02ad3a320050202002e640801734977720821838d467078219107b19488219187b19407b18587b175095176095184050202202274150222402753a320050202802ae4080171c9777208218821908801a10976b20986620d46707d4ba0a7b19287b18207b1a307b173895174095182050202a02e74050222c0216383200951b000350223002843c7bb6a8008217507bb7a0008217487bb7980095179003951870038216387bb6900050203202eef79566017b1620886701821848c887077b1728d46707887701821850c87806d88607821830c887077b1718821868958720d88708821a6050223402c33a821840c88a0ad88a08821b58c88b0b951c00037bca407bc9387bc73095175003951830037bcb4833003602330256281937951b000382b75082b85882b96082ba687bba087bb97b18f8027b17f0028217187bb7287bb6208217287bb718951710039518f0028219207bb9105020380241f78217389578027b1828d87807821848c878097b1920d88906da7706821750c876067b1618d87607821630c867077b171082176895794050223a02ed37821b58c8b707951b00027bb7c8007bbac0007bb8b8009517d0029518b0027bb9b00033003c02330256287136951b000250223e023e3b8217107bb7a8008217187bb7a0008217207bb7980095179002951870028219287bb9900050204002a5f68217389578037b1828d87807821848c878097b1920d88908da7708821750c878087b1818d87807c867077b1710821768957960502242025437821658c86707951b00027bb7487bba407bb83895175002951830027bb9303300440233020e0228db35951b000282b75082b85882b96082ba687bba087bb97b18f8017b17f0018217107bb7288217187bb7208217207bb718951710029518f0018219287bb910502046029ee78217689579800050224802db36c867077b17c8017b1ac0017b18b8019517d0019518b0017b19b00133004a02330212022865358217d0018218d8018219e001821ae8017b1a88017b1980017b1878017b1770018217107b17a8018217187b17a0018217207b17980195179001951870018219287b19900133004c02951160ff7b1098007b1590007b1688009515a00033021602281c378217389578047b1828d87807821848c878097b1938d88908da7708821750c878087b1848d87807821830c887077b17508217689579a000d87907821a60c87a08d8a80ada770a821640c86a0ad86a07821b58c8b7077b1748017b1a40017b18380195175001951830017b19300133004e0233021202288a34821750018218580182196001821a68017b1a08017b1900017b18f8007b17f0008217507b1728018217487b1720018217387b171801951710019518f0008219287b19100133005002951160ff7b1098007b1590007b1688009515a00033021e022841368217689579c000d87907821a60c87a08d8a80ada770ac86a0ad86a07821b58c8b7077b17c8007b1ac0007b18b8009517d0009518b0007b19b0003300520233020e0228e2338217d0008218d8008219e000821ae8007b1a88007b1980007b18787b17708217507b17a8008217487b17a0008217387b179800951790009518708219287b199000330054029511807b10787b15707b1668951580003302260228d837502256024d393200951160ff7b1098007b1590007b1688009515a00050225802d738829a8298088099107b67384916787b69707b68689568607b6a60330750205a020c3b50225c02563850205e02003b390824000256183f0b200324000240019517e08479e07b693064913307300002837783993308400a0650226002ca3332009511a07b10587b15507b16489515608411e064168289828a08828b108288187b67187b68387b6b307b6a289568207b6920330750206202963a390824000256181f0b200324000220019517e08479e07b691064913307300002837783993308200a06826a1082a71882a81082a90882aa6f776f886f996faa826b187bba187bb9107bb8087bb7502264026f3132009511b07b10487b154095155050226602ff3150206802293a491118491110490132330704641849110850206a02123a390824000256183f0b200324000240013308300002838833070133092433006c020a08019511a07b10587b15507b164895156050226e02ef3150207002c63a8217108218188219821a087b67107b68187b697b6a0850227202e33032008217c8008212b0008219c000821ab800d3670b7b1630d87607821638d8960cdbb70c821840d38a07d8a80a821848d82808db7a08d36907d4b707db7c085108bf008217187b17508217107b17588217087b17609517709518508219207b19685020760287fe82128800821970821a78821348983802821740977b3ed4b808987b02976c3ed4cb0bc8ab0bc89808d8980cc8cb09d3a90bd8a90adabc0a821b8000986602821c3097c73ed4670798cc02c82c0cc8b707d8b70bc8cb0bc87a0ad87a07c8b707973b0384bb18821c287bcb207bc87bc9087bca107bc7183307491c30491c38491c28955110ff8210e8008215e0008216d8009511f00032005020780278fe951138ff7b10c0007b15b8007b16b0007b176882938295088287107b176082921098373d975c03d4c7079736038e7c886b000185bb01db7c0b64bc8287187b175882971898553d972903d45909828b7b1b508288087b184898283d977703d4870782a8107b18980082a8187b18900082a87b18800082a8087b18788e788e9adb780ad49707db7a0c7b1c708a39037b1988003307ff330850207a02c13a886980007b19a00093987b18a800939764758369807b19183307ff330850207c029e3a7b17407b18388d6980007b19283307ff330850207e02ac3a8219a000821a38da9a087b16209368821b40da9b07936782197094977b174094987b183894957b15308217a80094977b17a8008215800064578216786468821918502080023f3a7b17187b181082179800821890008219880050208202273a7b17087b1864576468821928502084023b3a8216d486068219a000821810da980682189000821a20daa806821508d47505821718da970582179800daa705821780008218788219880050208602d8398219a000939893978219709495949694979498821948821aa800e0a902d2a808821a50821b30e0ba0ad2b707821b58821c38e0cb0bd26c0c821660821940e09606d29505d46505d4cb0bd4a707d482088219687b98087b977b9b187b95108210c0008215b8008216b0009511c8003200821ba0008217a8008218b0008219b8004911384911304911287b1620821a7b1a58821a087b1a50821a107b1a48821a187b1a407b19787b18707b176895178000951860951940951a207b1b6050208a02befd821798008218900082198800821a80007b17d8007b18d0007b19c8007b1ac0009517e0009518c00050208c029b379551e0fe821018018215100182160801951120013200951180fe7b1078017b1570017b166801951580018411e064168289187b69208289107b69288289087b693082887b6838827818827910827a0882777b6858017b6950017b6a48017b674001956720019568400150208e02c13695670001827b38827a30827928d4ba0788980194785108c901826720017b67189577018878017b6910c88909d4970888880164ac7b6a08c88a0ad8ca087b6bc88b0b9518e08488e064817b89087b877b8a107b8b189567400150209002cd36826a4001826748018268500182695801826b7b6bb800826b087b6bb000826b107b6ba800826b187b6ba0007b69d8007b68d0007b67c8009567e0009568c0009569a0007b6ac00033009202951110ff7b10e8007b15e0007b16d8009515f0008411f0829a7b1a48829a087b1a40829a107b1a388296188289828a08828b108288187b17287b18207b18a8007b1b087b1ba0007b1a107b1a98009517b000951890007b19187b1990003300740228d5fa8262e0008263e8008264f0008269f80095680001828b828c08828a108287188268207b68588268287b68508268307b68488268387b68407b67787b6a707b6c687b6b607b6998007b6490007b638800956780009568609569407b628000330094029511e0fe7b1018017b1510017b160801951520018411e0828a7b1a18828a087b1a10828a107b1a088288187b188296827818827910827a0882777b18f8007b19f0007b1ae8007b17e0009517a0009518e0003300880228f634955180fe821078018215700182166801951180013200502096026bde951110fe7b10e8017b15e0017b16d8019515f001951150f88411e0641682931082941882920882997b62f8007b64f000d442027b6308017b690001d43909d429095109430b82b41882b31082b282bb08d43200d44b09d490095109760b7b6bb0007b64b8007b63c0007b62c8007b67488257827b0882798273188277108eb27b69e8008899408599017b6be000dbb2098e728e3bda320b7b67d8007b63d000d43707da790b510b700b8257108279187b691001825908827b107b6b3801827b087b6b500182777b6748018297187b6718018297107b6720018297087b67280182977b67400182c7187b67900082c7107b67980082c7087b67a00082c77b67a80082a7187b677082a7107b677882a7087b67800082a77b6788008287187b67508287107b67588287087b676082877b67689517e08477e07b679801647183770a0701826a980182a71882a81082a982aa08d4870782684001d8890894a894785108fe0a33073000037b67580183777b6730010a0301956c000182c95882970882988199106f77987a206f88978b20d4ba0a9777206f99989920d4970798882082c9389799209899207b6920d3980882c948d39707d4870782c850d3a808d487075107f40a9567ff079577190149074917f895670010492708f99567ff07957721019568ff079588010195690010492900f95020980262db9569ff0795991901829a207b6a60018298187b6868018297107b6770018299087b697801956b00107bbad8f8956a00107ba8d0f8956800107b87c8f89567ff079577e1009568ff079588c100956a00107ba9c0f850209a028ddb956700108277e0f8956800108288e8f8956900108299f0f8956a001082aaf8f8956b00107bba98f8956a00107ba990f8956900107b9888f8956800107b8780f8956700104927b8f8956700104927b0f8956700104927a8f89567ff079577a1009568ff0795888100956900104929a0f850209c0260db8267300133009e020a033302a00228e32d5022a002e02dd4a8087b68389877206f98978920d497077b67309888207b68289517e08477e07b679801647183770a078267980182778477ff7b67409567ff079577615020a2029f1195670010827760f87b67800195670010827768f87b67880195670010827770f87b67900195670010827778f87b6798018267f000956800107b8718f882670801956800107b8710f88267f800956800107b8708f882670001956800107b8700f8826750956800107b8738f8826758956800107b8730f8826760956800107b8728f89567ff079577419568ff079588219569ff07959901826a68956b00107bba20f85020a40273df95670010827740f895680010828848f895690010829950f8956a001082aa58f87b6ad8077b69d0077b68c8077b67c007826798017b67f807826790017b67f007826788017b67e8079567e0079568c007826980017b69e0073300a6023302aa01285d298267b8007b6778078267c0007b6770078267b0007b6768078267c8007b6760078267707b6798078267787b679007826780007b6788079567a0079568800795696007826a88007b6a80075020a802c0de8262a0078263a8078264b007826bb80782678001957920d8790c82688801c8c807d88708dacc08826a9001c8a808d8a80c826a9801c8ac0c7b6b38077b6430077b6328077b6220077b6c58077b6850077b67480795674007956820077b6940073300aa023302aa0128a2288267d0007b67d8068267d8007b67d0068267e0007b67c8068267e8007b67c006826790007b67f806826798007b67f0068267a0007b67e806956700079568e0069569c006826aa8007b6ae0065020ac0203de826200078263080782641007826b180782678001957940d8790c82688801c8c807d88708dacc08826a9001c8a808d8a80c826a9801c8ac0c7b6b98067b6490067b6388067b6280067b6cb8067b68b0067b67a8069567a006956880067b69a0063300ae023302aa0128e527826780019579605022b002e825826b18017b6b5806826b20017b6b5006826b28017b6b4806826b40017b6b40067b6778067b6a70067b68680695676006956840067b6960063300b2023302ae0128952782678001957980005022b402972549261806826b28956c00067bcb10826b307bcb08826b387bcb7bc7387bca307bc82895672006956800067bc9203300b6023302b201284f27826780019579a0005022b8025125826b10017b6bd805826b38017b6bd005826b50017b6bc805826b48017b6bc0057b67f8057b6af0057b68e8059567e0059568c0057b69e0053300ba023302b20128fe26826780019579c0005022bc020025492698054926900549268805826b407b6b80057b67b8057b6ab0057b68a8059567a005956880057b69a0053300be023302ae0128ba26826760017b673805826768017b673005826770017b672805826778017b67200549265805492650054926400501956760059568400595692005492648055020c002e3dd956c000582c96082c76882c87082ca78826b98017b6bf804826b90017b6bf004826b88017b6be804826b80017b6be0047bca187bc8107bc708956700059568e0047bc93300c2029511f0fb7b1008047b1500047b16f803951510048411f082797b19388279087b19488279107b19508276187b1630828b7b1b68828a087b1a608289107b19408287187b1758951c00037bc7c8007bc9c0007bcab8009517d0039518b0037bcbb00033002e02330256285e24826730013300c4020a033302c60228e7285022c602e428d48a0a9877206f98978920d49707988820492698044926b8044926b0044926a8044926a004027b6890047b6788049567c0049568a004956980047b6a80045020c8028bf08269c0048267c8048268d004826ad804826b60017b6b5804826b68017b6b5004826b70017b6b4804826b78017b6b40047b6a78047b6870047b67680495676004956840047b6960045020ca025ef5826710017b67f803826738017b67f003826750017b67e803826748017b67e0034926180449261004492600040395672004956800049569e003492608045020cc02faef956b000482b92082b72882b83082ba38826b60017b6bb803826b68017b6bb003826b70017b6ba803826b78017b6ba0037b6ad8037b68d0037b67c8039567c0039568a0037b69c0035020ce02cdf4826730010a03826758018078107b6838018278087b68300182777b675801956780035020d00299b3956c000382c998007b69900182c890007b68880182ca88007b6a800182cb80007b6b9801826718017bc738826720017bc730826728017bc728826740017bc7207bc9587bc8507bca489567600395684003956920037bcb405020d202dbb3956b000182b9800082b79000d4970782ba880082b89800d4a808d47808988820d4a707977720d4870752072f0364a0956b000382b76882b8787b6840018263600382ba70d3970bd8970c82629801d82308dab80cc90a0bc9cb04d8cb0b7b6b2801d80a0a826c9001826b4001c9cb0cc9ac0c826a2801c9ac0cc99707c98707c92308d4c707d4480ad47a0ad4470798aa20977720d4a7075207c102826730016f79979720826a38016faa98aa20d47a02826758016f7a97ab20989920d49b0398aa204926b802826748017b67a0024926d802826778017b67e002826750017b67a802826770017b67e8023a0b0000023a0c0800023a071000023a091800027b6b1803956b00037bbc107bb7087bb9956900027b9ad000826768017b97f000826760017b97f8008267207b97b0007b63c80295690003956ae002956bc002956ca0027b62c002826798013300d4029511e0fe7b1018017b1510017b160801951520018411e082c67b166082c6087b166882c6107b167082cc187b1c7882bc7b1c3882bc087b1c4082bc107b1c4882bb187b1b5082ab7b1b1882ab087b1b2082ab107b1b2882aa187b1a308296829a087b1a829a107b1a088299187b19107b185833000a0428102b826748956900018298607b78188298687b78108298707b78088298787b78955100f8951160fe9511b0078210e8018215e0018216d8019511f00132009567c0015020d6022fb1956a000182a7d80082a8d00082a9c80082abc0005022d80233225207320164ba4926b0014926a8014926a001140700000000d4115f799568a0017b67b801283001956700025020da02e4b0956a000282a71882a81082a90882ab5022dc02ed215207ec0064ba4926f0014926e8014926e001140700000000dba602ec9568e0017b67f80128ea00956740025020de029eb0956a000282a75882a85082a94882ab405022e002a6215207a50064ba4926300249262802492620021407000000002d64568b956820027b67380228a3009567ff07957761015020e20253b0956aff0795aa190182a76082a85882a95082ab485022e402572152075664ba9569ff0795991901330b4919384919301407000000009794d0b77b97409568ff0795884101491928284b956780025020e60200b0956a000282a7980082a8900082a9880082ab80005022e80204215107040064ba4926700249266802492660021407000000009e9d6b3f956860027b6778020164a77b6a98015020ea02e226330804826798015020ec02462983783307013309043300ee020a08014917184917104917083308607b783200951b000382b8980082b7900082b9880082ba80007b18287bb8187b17307bb7107b19207bb9087b1a387bba821780007bb738821788007bb730821790007bb728951740039518200395190003821a98007bba205020f20258b2951800038287587b1788008287507b1798008287487b1780008287407b179000951a00027ba6d8008217687ba7d0008217707ba7c8009517e0029518c0028219787ba9c0005020f40249eb330833033304330695170002827bf800827cf0008279e800827ae000951700037b7bb8007b7cb0007b79a8007b7aa000017b13607b14787b18707b1668868203821c20d3c307821a30d8a408821b28d3b609d8b606da9806d3a408d48909d8c30a821838d882087b17187b1a08db7a087b1910db96087b18589517a0029518a0035020f6027e26951b000282b7a00082b8a80082b9b00082bab8008477ff848cff8499ff8218587b1a507b19487b1c405108b801821890007b186001492198014921900149218801821680007b1668017b178001821798007b1770019517800195186001821b88007b1b78013300f802330224280422821890005022fa02b12382189800c88a0ad88a08821b8800c88b0b7b1a30017b1928017b1720014921580149215001492148018217407b17400195174001951820017b1b38013300fc0233022428b421821890009587405022fe0203217b18f8007b1af0007b19e8007b17e000492118014921100149210801951700019518e0008219487b190001330000033302242872218218900095876050220203c1207b18b8007b1ab0007b19a8007b17a0004921d8004921d0004921c8009517c0009518a0008219507b19c000330004033302242830218217900095728000d87209c89608d8680ada990a82179800c8a709d8790a82178800c8a7077b178800821aa003821bb803821ca8038216b00395aa0188a701c8c707d47a0c88cc01c86c0cd86c06c86b0b951600037b6aa0007b67a8007b6cb0007b6bb800821a7095a704d8a70a821c60c8ac0bd8cb0cdaaa0c821a78c8ac0cd8ac0a821668c8a6067b1290007b1880007b199800647864b364c428ccfd821838821070d88008821c18821b08dbcb08821c10dbc6088216980082138000821c900051087c95c8207b1858951900027b9c604929980049299000492988007b93687b9780007b967095178002951860027b1380007b169800821688007b967833000603330224282720821070821a5882179000d87a0782198000c87903d89309da770982179800c87909d87907c876067b1688008600017b1a9000649601821c68821260821738d87007821920d39208d89209da8709821b30821778d8b704821a28d3ac08d8ac0ada840a7b1778d3b707d48707da790a510aa40082179000951900027b97204919584919504919487b93287b96308217407b974095174002951820027b1380007b169800821688007b96387b1c687b12607b107033000803330224286b1f821070821260821c6882189000958720d88708821a8000c88a03d8a30ada880a82189800c88a0ad88a08c886067b168800950001880801c88202d42008888801821b78c8b808d8b80bc8bc0c7b17900064a6648a2806821a7801821738d87007821920d39208d89209da8709821b30d8ba0464a7821a28d3ac08d8ac0ada840a7b1778d3b707d48707da790a7b169800510aa300821790007b17e001951a0002491a18491a10491a087b13e8017b16f0017b138000821688007b16f801951700029518e0018219487ba97b1c687b12607b107033000a03330224288e1e821070821260821c6882189000958720d88708821a8000c88a03d8a30ada880a82189800c88a0ad88a08c886067b168800950001880801c88202d42008888801821b78c8b808d8b80bc8bc0c64747b1a9800648a280a821a788214900001821738d87007821920d39208d89209da8709821b30d8ba0764a6821a28d3ac08d8ac0ada870ad3b607d48707da790a510a6e7b14a0014921d8014921d0014921c8017b13a801821798007b17b001821788007b17b8019517c0019518a0018219507b19c0017b138000644633000c0333022428bb1d821b8800956720d86708821a8000c88a03d8a30ada880a82189800c88a0ad88a08c88b0b6474280b821b8800821a98000182177b747b73087b7a107b7b18955120fc951700038270d8008275d0008276c8009511e00332009511d0fe7b1028017b1520017b1618019515300150220e038e1d502010032ea950221203881933001403951120fc951a00037ba0d8007ba5d0007ba6c8009515e0038411e0829a7b1a9800829a087b1a9000829a107b1a88008299187b19800082897b1978828a087b1a70828b107b1b688286187b17951c00037bc6787bcb707bca6895178003951860037bc9603300f00228fbe550221603c31dd84302dab20c821848c98a0bd88a0a821630821928c96909c9a909d8cb0ac9a909c9cb0b7b1008c90707c92707502218035b1c50201a037bca50221c03b81b32009517c0009518a000951980004921a000025020200346e450222203b91d5020240307ff502226038f1d50202803c81150222a03ec1a32009517c0009518a000951980004921a0000350202e030fe450223003821d50203203d0fe50223403581d50203603911150223803b51a32009511a07b10587b15507b16489515608411f064764911184911104901e000951720641849110850203a03b3ca50223c03031632009511b0fe7b1048017b1540017b163801951550018411f07b179517100150203e03af82192801821a200182171801821810017b17287b1910d497076486d4a808d478089888207b1a18d4a707977720d487075207950149210801492100014921f8009518f0004921f000606467502040038a1e821710821918d47909140700000000010000007b17081407e0ffffff00000000d8760782182894877b19209497510747018367204921e8004921e0004921d000609518d0004921d800502042033b1e8217089577c0502244031118510719018367404921c8004921c0004921b000609518b0004921b800502046030d1e140700000000010000007b17081407a0ffffff0000000050224803d2175107da008367604921a8004921a00049219800951890004921900050204a03cf1d82170895778050224c03a5175107ad0083678000492188004921800049117895187049117050204e03a41d140700000000010000007b1708140760ffffff000000005022500369175107718367a000491168491160491158951850491150502052036b1d821708957740ff5022540340175107488367c00049114849114049113895183049113050205603421d82178218107b78188218187b78108218287b78087b769551b0fe821048018215400182163801951150013200008267f8018268f0018269e801826ae0017b6a387b67287b67b8017b68207b68b0017b69187b69a8019567c0019568a0017b6aa00150205a0398ce8267d8018269d0018268c801826ac0017b67687b6758017b69587b6950017b68607b6848017b6a507b6a4001826780007b677801826788007b677001826790007b676801956780019568600195694001826a98007b6a600150205c0378a8826c38956b000182b8980082b9900082ba880082b7800084cb017b68787b69707b6a487b6740520bc000d4970bd4a808d48b0b98bb20d49808978820d4b80852081a0284c800ff8269187b69a8007b68a0008268207b68b0009568a0008269287b69b80050205e03131c330433033302826758826850d48707826868826960d49808d487078e7797700501826740c80707d80708826948c84909c88909d3490ad8490bdaa80b826870c83808c88b0bd88b0ad83808826c78c82c0cc8c808c8a808826a307ba77ba9087bab107ba8189551c0fd951700028270388275308276289511400232009517e08477e07b67386471956b000282b982b70882b81082ba187b6a18017b6810017b67080195672001956800017b6900015020600396e08268383300330433033302956c000182c73082cb3882c92082ca287b87107b8b187b897b8a0801826750d87007826960d3940ad89409daa709826b58d8b307826a68d3a20cd8a20adac70ad3b307d4c707da790a510a19ff9567e0007b6298007b6390007b6488007b60800050206203e01b82674082688000c88707d88708826948826b880050226403c515826870826a9000c8a808d8a802826c78826a9800c8ac0cc82c0a50226603751452088f008269f8008268f000826ae800826be0007b6bc0007b6ac8007b68d0009568c0007b69d80050206803851a826c3882c782c81882c90882ca10957701887b01c8b909d4970b88bb01c8ab0bd8ab0ac8a8087bc77bc9087bcb107bc81882688000958720d88708826a880050226a03ef1582689000c88a0ad88a0882629800c882026470649464a364c828effe009511d0fe7b1028017b1520017b1618019515300150226c03361750206e03d6a2502270033013330072039511c0fd951a00027ba0387ba5307ba628951540028411e064167b673082977b6798008297087b6790008297107b6788008297187b678000828718828910828a088288956b00027bb7187bb9107bba087bb89567e001956800023300580328881a502274037517d84302dab20c821848c98a0bd88a0a821630821928c96909c9a909d8cb0ac9a909c9cb0b7b1008c90707c92707502276030d16502078032dc450227a036a15320050207e033e1a8017188218088219107b67104916187b687b6908502280035d103200502084031c1a80171082188219087b67104916187b687b6908502286033c10320050208a03fb19821718801814977720d4870733084916104916184916087b6750228c03151032009511d0fb951900047b90287b95207b9618951530048411f082897b19308289087b19408289107b19488286187b16387b17289517f00350208e0380f9951900038297f0007b17588297f8007b1760821700047b1768821708047b17507b96c8008217487b97c0008217407b97b8009517d0039518b0038216307b96b0005020900347fe951b00035022920367158217507bb7a8008217687bb7a0008217607bb7980095179003951870038219587bb99000330094033302aa0128c811956901889701821840c88707d47908888801821a48c8a808d8a80a821b38c8ba0a951b00037bba487bb8407bb73895175003951830037bb93050209603cffd821250038213580382196003821a6803821758957b20d87b0c821760c8c706d87607dacc07821868c88707d8870c821850c88c0c7b1a0803951a00037ba97b13f8027b12f0027bac287ba7207ba618951710039518f0027bab10330098033302aa01282411821730957902d87907821a40c87a08d8a80ada770a821748c87a0ad87a07821b38c8b707951b00027bb7c8007bbac0007bb8b8009517d0029518b0027bb9b00050209a0324fd8212d0028213d8028219e002821ae802821758957b40d87b0c821760c8c706d87607dacc07821868c88707d8870c821850c88c0c7b1a8802951a00027ba980007ba3787ba2707baca8007ba7a0007ba6980095179002951870027bab900033009c033302aa01287510821730957803d8780764897b1820821840c8780a7b1a1850229e0331157b1710951b00027bb7487bb6407bba3895175002951830027bb9305020a00308c0821250028213580282146002821a6802821758957b60d87b0c821860c8c807d88708dacc08821968c89808d8980c821950c89c0c951900027b9a087b947b13f8017b12f0017b9c287b98207b9718951710029518f0017b9b103300a2033302ae0128d30f8217107b17c8017b16c0018217187b17b8019517d0019518b0018219207b19b0013300a4039511a07b10587b15507b164895156033027c03280e0e8212d0018213d8018219e001821ae801821758957b8000d87b0c821760c8c706d87607dacc07821868c88707d8870c821850c88c0c7b1a88017b1980017b1378017b1270017b1ca8017b17a0017b16980195179001951870017b1b90013300a6033302b20128300f821730957804d8780764897b1820821840c8780a7b1a305022a803ec137b17487b1748017b1640017b1a380195175001951830017b1930013300aa039511a07b10587b15507b16489515603302820328540d821250018213580182146001821a6801821758957ba000d87b0c821860c8c807d88708dacc08821968c89808d8980c821950c89c0c7b1a08017b1400017b13f8007b12f0007b1c28017b1820017b171801951710019518f0007b1b10013300ac033302b20128760e8217487b17c8007b16c0008217307b17b8009517d0009518b0008219207b19b0003300ae039511a07b10587b15507b16489515603302880328b10c8212d0008213d8008219e000821ae800821758957bc000d87b0c821760c8c708d87807dacc07821c68c8c707d8c70c821650c86c0c7b1a88007b1980007b13787b12707b1ca8007b17a0007b189800951790009518707b1b90003300b0033302ae0128d60d8217287b76188218687b78108218607b78088218587b789551d0fb951700048270288275208276189511300432007b16f8008217087b17f0008217107b17e8008217187b17e00049211801492110014921080195172001951800019519e00049210001015020b403d8c4821920018217280182183001821a38017b1ab8007b18b0007b17a8009517c0009518a0007b19a0005020b603c0fa8218c000821bd8008216c800821cd000958780007b1810d88708c88609d8690ada880ac8ca0a7b1c08d8ca087b1b18c88b0b7b17607b19687b1a70951780009518607b1b783300b8033302120228870b821790008218980082198800821a8000d49808d4a707d4870751072f82178218107b787b76088218087b78108218187b7818955180fe8210780182157001821668019511800132009517405020ba03d39b821758821850821948821640d49707d48609d47909989920d48707977720d4970751070400491130491128491120140700000000c75a91289518207b173864675020bc03ba1233080464675020be03201583783307013309043300c0030a08019511a07b10587b15507b16489515608411f06476491118491110491108951720641849015020c203e4bb5022c40374093200828b18828a10828908d4ba02889c01942c510c48828898ac3b97bb05d4cb02989c3b97aa05d4ca0a988c3b979905d4c909978805958c20d88c08c8890bd89b09da8809c8a909d8a908c828087b7c7b7b087b79107b781832009511f87b105020c6038bbc951100ff7b10f8007b15f0007b16e800951500018411f08289828a08828b108288187b17387b18307b18b8007b1b187b1bb0007b1a207b1aa8009517c0009518a0007b19287b19a0005020c80353ff8219c0008217c8008218d000821ad8007b1a787b18707b1768951780009518607b19605020ca0340bd821898008219900082178800821680007b17107b18d48707d49608d478089888207b1908d49707977720d487075207528217287b17408217207b17488217187b17509518408217307b175864675020cc033f1182173882187b78188218087b78108218107b78087b76955100ff8210f8008215f0008216e80095110001320000330333063302330c01821720d87307821928d39608d89609da8709821b30d8b207821a38d3ac08d8ac0ada870ad3b207d48707da790a510aa000951780007b1c587b12507b164864365020d003ccf18217c867077b1640d86708821648821908c86909c88909d3690ad8690bdaa80b821810821a50c8a808d8a802821c18821a58c8ac0cc82c0a5022d203470a52085f8219980082189000821a8800821b80007b1b607b1a687b18709518607b19785020d4035d108218405022d603f30e821850c88a0ad88a08821c58c88c0c6473649664a22836ff955140ff8210b8008215b0008216a8009511c0003200008217f8007b17188217f0007b17308217e8007b17288217e0007b17387b16980082177b1790008217087b1788009517a000951880008219107b1980005020da037bfd8212b8008214b000821aa000821ca800821738957320d8730695a0e0d8a009c89c0a95aaffd3ca07d8ca0cda790c821828c86807d88708da6608884601c96206821930c8890b9548ffc88c0cd88c08c88602d89b08821618c868087b10407b17687b13607b1b707b1a487b18787b1c509517609518407b12583300dc03951140ff7b10b8007b15b0007b16a8009515c0008411f03302ce0328c8098217207b76188218307b78108218287b78088218387b789551e0fe8210180182151001821608019511200132008289828218828a08828c10959b0188b901c8a909d49b0a88aa01c8ca0ad8ca0cc82c0cd4c902d4ab08d428085108117b7b7b79087b7a107b7c1828ec049511f87b105020de0373b8951160ff7b1098007b1590007b1688009515a0008411f0829a7b1a30829a087b1a28829a107b1a38829618828b828a088289108288187b17207b18107b18587b19187b19507b1a087b1a489517609518407b1b7b1b403300e00333025628a9066462821b28821330821778821460821970821a68d37606d87208821738d8970cdb680cd3ba00d8ab0ad84308db0a08d37909d46909db9c0851088700647a98773b972805d4780298b83b97a605d4680898393b97ba05d4a909973a058217c87a0ad87a0b821c08c8c909c8b909d3c907d8c906da7b06821c18c8c808c88606d8860bd8c808821c10c82c07c88707c8b70795a820d8a80ac8a90bd89b09daaa09c86909d8690ac8a707821a207ba87bab087ba9107ba7185022e203680832005020e40373d3951110fc951900037b90e8007b95e0007b96d8009515f0038411f08286828908828a108288187b17087b1860951b00037bb8a8007b1a687bbaa0007b19187bb998009517b003951890037bb690003300e603330256288c05951b000382b9b00082b7b80082b8c00082bac8007bba687bb8607bb75895177003951850037bb9503300e8039511e0fe7b1018017b1510017b160801951520018411f082897b1910828a087b1a08828b107b1b8286187b17207b16d8007b1bd0007b1ac8009517e0009518c0007b19c0003300d80328d7fa95180003828788007b1710828780007b17588287787b17508287707b174849218800492180004911784911707b164001951a00037ba6108216187ba6188217687ba72095173003951810038219607ba9283300ea0333025628b90495180003828748828230828940828a38821c70d37c0bd87c08821778d8970cdbb80c82188000d3a803d8a80a82188800d82808db3a08d39707d4b707db7c085108730282178800951b00027bb7b0008217407bb7d000821780007bb7b8007bb6d8008217787bb7c0008217687bb7e0008216707bb6c8009517f0029518d0029519b002821a607bbae8005020ec0326fd951b000282b9f00082b7f80082180003821a08037bba88007bb880007bb77895179002951870027bb9703300ee0333020e0228f403951b000282b7900082b8980082b9a00082baa8007bba287bb9207bb8187bb710491b48491b40491b38951750029518300295191002491b30015020f00388bc951b000282b95082b75882b86082ba687b1ae8017b18e0017b17d8019517f0019518d0017b19d0015020f20370f2821708027b1738821700027b17308217f8017b17288217f0017b17207b1688018217787b178001821780007b177801821788007b1770018216107b16a8018217587b17a0018217507b1798019517b0019518900195197001821a487b1a90015020f4031ffc8218c8018219c001821ab8018217b001d4a808d4970ad48a0a98aa20d49808978820d4a80852082a018218207b1850018218287b1858018218307b186001951850018219387b1968015020f6039d0a8217707b1708018217787b170001821780007b17f800821788007b17f0007b1628018217587b1720018217507b17180195173001951810019519f000821a487b1a10015020f80387fb8217480182194001821a380182183001d4a707d4980ad47a0a98aa20d49707977720d4a707520792009517d0005020fa03e6088217787b17a000821780007b179800821788007b1790009517b000951890008219707b19a8005020fc03e0fa8217c8007b17708217c0007b17788217b8007b1780008217b0007b1788008216402826fd8217088218487b788218507b78088218587b78108218107b7818955110fc951700038270e8008275e0008276d8009511f0033200009511f87b1033075020fe036f909511f87b103307015020000461909511807b10787b15707b1668951580008411f08282828308828410828818829a829b08829c1082991864767b19187b1c107b1b087b1a7b18387b14307b132895174095182064197b1220502002042c9533020404821750821858821940821a487b67107b68187b697b6a089551808210788215708216689511800032003200821730821838821920821a287b67107b68187b697b6a089551a082105882155082164895116032029551a082105882155082164895116032028217b8007b17188216b0008218a8007b1810821aa0007b1a088219207b19588219287b19508219307b19488219387b19407b17787b16707b1868951780009518609519407b1a6032028217108218188219821a087b67107b68187b697b6a089551c08210388215308216289511403202d87907826a8801c87a08d8a80ada770a82679001c87a0ad87a07826b9801c8b70732028411f0491130491128491120140700000000717b484e9518207b173833073202646482178800821898007b183882138000821a9000d3b706d8b70cd80308da680cc94a0632028411e06476828718828910828a0882887b17387b19307b1a287b182064179518203202828910828a18828b088288d4ba0ad4980bd4ab0b98bb20d4a909979920d4b9093202821420821310821918c94909c9a909c98909c90606c9c608c93b0a8e8c88aa2085aa01db8c0a8f968218288e8cdb960cd49808db8c0a3202955180821078821570821668951180003202821918821b10821008d49b07d46008d47808988820d46707977720d48707320238072000024921180149211001492108017b17000149213801492130014921200104951740019518200195190001492128013202826a3082a71882a81082a90882aa6f776f886f996faa826b387bba187bb9107bb8087bb7955160ff8210980082159000821688009511a00032028217f0007b17408216f800821900017b1948821808017b18307b18a8007b19a0007b1698007b1790008217107b17c8008217187b17c0008217207b17b8009517d0009518b00095199000821a287b1ab0003202d87907821a60c87a08d8a80ada770a821740c87a0ad87a073202827910827a18827b088277d4ba0ad4970bd4ab0b98bb20d4a909979920d4b9093202c88b0bd88b08c8a808d49808d4b709d48909d4b808989920978820d498083202d87607821828948782182094873202d49707d48b09d47909989920d48707977720d49707320282188800d8780782186094878218589487320282177b17488217087b17408217187b17788217207b17708217287b17688217307b17607b165095178000951860951940821a107b1a5832028411e082897b19188289087b1910808610827818827910827a0882777b18787b19707b1a687b176095172095186032028289187b19388289107b19308289087b192882887b18208278187b18188278107b18108278087b180882777b173202955160ff8210980082159000821688009511a0003202821940018217480182185001821a58017b1ad8007b18d0007b17c8009517e0009518c0007b19c0003202c8b909c88909d3b90ad8b90bdaa80b3202821790008218980082198000821a8800821b387bb7107bb8187bb97bba08955120ff8210d8008215d0008216c8009511e0003202951150ff7b10a8007b15a0007b1698009515b0008411f0828410828308829608828c7b1c10829b32028217e0007b17388217e8007b17308217f0007b17288217f8007b17209517a0003202821730821838821920821a287b67107b68187b697b6a08955100ff8210f8008215f0008216e800951100013202c88a09d8a90ada880a32028217800082188800821970821a787b67107b68187b697b6a08955150ff8210a8008215a000821698009511b00032028411f08289828a08828b1082881864767b1898007b1b90007b1a88007b1980004921b8004921b0004921a80032028217387b76188218487b78108218087b78088218407b789551d0fe821028018215200182161801951130013202d88708c88609d8690ada880a82189800c88a0ad88a08821b8800c8b80832028218407b188217487b17188219507b1910821a587b1a087b1a387b19307b17289517207b182032028411e08286827818827910827a0882777b18587b19507b1a487b174064179518403202c9430c7b1c507b1688007b1880007b10787b14707b17587b1b609517709518507b196832028269580182970881981082996f77977a206f889888203202828a10828b18828c088289d4cb0bd4a908d4b808988820d4ba0a97aa20d4a808320282b7d00082b8d80082b9e00082bae8007bba88007bb980007bb8787bb77032028411f082897b19288289087b19208289107b19188288187b18107b17389517f00032028267187b67588267207b67508267287b67483307209568408269307b694032028411e049217801492170014921680149216001831760013202c86c0cc8c808c8a808d4b70ad49808d48a0a98aa20d4b808978820d4a80832028411e06416828a7b6a30828a087b6a28828a107b6a208288187b681832029511807b10787b15707b1668951580008411e06476838883174032028217d8008218e8007b18288213d000821ae000d3670bd8670c646082144032029551f0fb82100804821500048216f803951110043202821960821768821870821a787b1a187b18107b170895172064187b1932028219c0008217c8008218d000821ad8007b1a587b18507b17489517609518407b19403202821770018218780182196801821a6001d49808d4a707d487073202d88a06da7706821748c87606d87607821838c887073202d87a0782691801c87908d89809da77093202958720d88708c88609d8690ada880a320239082800025108e288330750000383770a0928d5889511f07b10087b15648964753308206497502006049b037c78017c797c7a027c7b03978808d4980897aa1097bb18d4ba0ad4a8087c79057c7a047c7b067c7c07979908d4a90997bb1097cc18d4cb0bd4b909979920d489027c79097c7a087c7b0a7c7c0b979908d4a90997bb1097cc18d4cb0bd4b9097c7a0d7c7b0c7c7c0e7c780f97aa08d4ba0a97cc10978818d4c808d4a808978820d498037c78117c7a107c7b127c7c13978808d4a80897bb1097cc18d4cb0bd4b8087c7a157c7b147c7c167c791797aa08d4ba0a97cc10979918d4c909d4a909979920d4890a7c78197c79187c7b1a7c7c1b978808d4980897bb1097cc18d4cb0bd4b8087c791d7c7b1c7c7c1e7c771f979908d4b90997cc10977718d4c707d49707977720d487076f776fa86f396f2a7b5a187b59107b58087b57821008821595111032009511d87b10207b15187b161082897b19088289087b198285108286183308205020080452026f686f59821a6faa821b086fbb787b18787a10787908787898bc38787c1f98bc30787c1e98bc28787c1d98bc20787c1c98bc18787c1b98bc10787c1a98bb08787b1998ab38787b1798ab30787b1698ab28787b1598ab20787b1498ab18787b1398ab10787b1298aa08787a11989a38787a0f989a30787a0e989a28787a0d989a20787a0c989a18787a0b989a10787a0a98990878790998893878790798893078790698892878790598892078790498891878790398891078790298880878780182102082151882161095112832009511a07b10587b15507b16489515608411e06476828718828910828a0882886f776f996faa6f887b18387b1a307b19287b1720831820831933070a05821718821810821908821a6f776f886f996faa7b6a187b69107b68087b679551a082105882155082164895116032009511a07b10587b15509515608411e08272827a08827b108277188283828908828c108288186f746fbb6faa6f276f826fcc6f996f387b17387b1a307b1b287b14207b18187b19107b1c087b12831820831933070a0a9551a082105882155095116032006f687b18980082186f887b1890008218086f887b1888008218106f887b1880008218186f887b18b8008218206f887b18b0008218286f887b18a8008218306f887b18a0008218386f887b18d8008218406f887b18d0008218486f887b18c8008218506f887b18c0008218606f887b18f8008218686f887b18f0008218706f887b18e8008218786f887b18e0008379811a58831780003308040a049551e0fe821018018215100182160801951120013200838951092b8b7910520931c8780883881f8488e05638000001253309240002390a240002ae8a093d082400020133083000028377c88707320000849a40520a195109148d9a40d0a70acf9707cf9808d4a808320032009598c0cf870833073200849a40520a195109148d9a40cfa80ad09808d09707d4a707320032009597c0d07807330832004969488424892421494892344992a490a424499221a49a2a4d92a4242409219254691244202048904444442424222222111111251111114944442422224a4892a4124249924a922449928490244949a590244d92482a4992244992a424499224499294128a8848122122222244442244229148841042429224499224493254a8d2248024a994422925212125219224a9d02449529224491252922449120a21499254084d92244949922449495292a4902424494a4a68d52449922449122549922449922449922449444892242449928488888888889024214952254992902449121211112122221a1111294992549224111111492291482422229148444422442291484992244992244944444444241211114992a42449429224499224499224495212111125499294a49442923412894422222222222222824a114992248924912449229224492492481289c42449929224492249242249928888249244924892244992442249922411119122822892489224a2202222222222222222228288882411444412892449129124898844a2144522918824d188884892922449224992922425491211220a828848122991489424911211111149d0281244104910111111098220081224499224499224830aaa6892a49442298a0409a248109224a9a04992a42449922448499224224141444424494922499244922451449024912449249248928844229124898888081249922412494424419200222945442291482482244994221289449214494a92244992249244824424128944221111892080484a11894422910892284524128924299294244992244912494404892449922449442441000920884892248944101191249224492222222222224982888820222291489224898888888888248004104444041111894492244944444444442489202222888848249224492222222222224992242968444424494992244992a4244949924484888220081a4582082212444444a424498a48100441902049922449922419545045232222882241049104111111912008822041922449922449325450455328459324524949922449922449922449224952922449922869922445499224499224499224499224499224499224499292244912148c481229a92489482212494a49924824a924114991882491242aa29124298a2492249144922422222222229288489014290124298a4824128944229188148d244951249124892492241111119148444444901440248a222291482422121189148d2449512491248924922411111111111111114422914824924890249144222222221289442211412491888888482249222222914824128944444444444492244912492291482412894491882451302222924488888888101111444444444444444444914824922449922449922449444444442412454444444422914824128944229188888888888888888888888888888808229148242288888888888888888888880822224992a48888489224892449922449061554d192549224082a494149120449528210c150122d499294944224294995241104499224098292240892a4042182a1249a2449252549922449922449922449252549922449922449822449414444a4244952045124124992244992244892a42222a224492949922449495290249124254992484a922489244949922449522aa8c4254990244912244912048d8888888808222292244992882422222241922449922449244924499224491249922449928844444444444444449024498a88880611119192942494a4244992a4444444244992922449294922221211114992a404254992a492122449932429a90449d22449929294122449232222284992822008114c52a8141424490942044349342929499224494a9224a59424a548924849922449922449929294229104114992242892a44892a8945214514a904444902a4149124992442211a452954812499224499224251111454424499224499288884822222292244592244992a44852294912892249248944444444440411115192942449922449224992244912499292942449499224291111112949929424499222222222499224494a50444424294945922425491111114912242949499224494a8aa2244992244992244992244992244992884a9224499224499224499248121111114992a42429111151449248254952444422918848441249922451442282888888888820222292249148242211914844444444909424a5442249a2442222222228aa8a44a2442452321249922449248924892449124992244922828888a42445102549922429492449124912499224492a2a25892449922449922411412412492289244992449224892449922422888888449244244192449024892441449224492a492291a42445904c9224499224252922918889488224498224492409229224494a492412499224499224499292144144926890242949499294242548929224490595a424499324490529494992344892244992202848922449922028484a92244992202882482422124192244992244912244922494422892449114992882448922449922449822422222222892091484424822449922449920449248948442249524492241149900812111111918888888844221191888888882449922449922492244992888888884444444424128988444444442491244992888888884444442489442292882489485044440425499214044188609242a5a024492a499224052182490a9592a4aa242928498220494a1022184aa2499220484a528222229224499224492449922441244992244992249224499224494a5292888828888848499224455292242549924814492549220511452529482229882425a59412459412241111a44a5022892449229108a252954892244992244992928888222292a42449922492248888888888082222a2888848499294244544440491242922499294a424a524828888229148444444444444444a92a42449241211894844449424499224492222928888884849925492222222221111511011119192149188249292242222524a8a2452894822892412452291281289449124892249929244359292484588a291945292922449922489881211111111442412894444444444444410111111111111111111111111111144140992942449a28a92481011111111111111111111119188442422128924228888888888888888888888884844444444221111111141444424912492484444444444442222222222222222222288888824924412898888888888482488888888888888884844108924294944221211444444444444444424228888444444444422222222224244441049121111119124a28888889424494a92241111111149449120294944448888880822222222222222222282888888888810111144924444444444444404512412450411111111118944224922224144242249922892882491248944249124499224a24449942411111111112184109114111191888888888888889424494a9224254992529224924892244544444411444444104544001189209214441111404422882409a288082022114144920429a2248044a408222222c8222280884590084aa2495211119124498a442211110922914824221289884450151111111131499224499224499224228888882449121111111111111191441049242222221111914482888888884844120922222222221149449244128988882449928888489224499288a892244912114922119148444424922412492249249a2449922449922422922449222222492249124924892491244992a8324992a424499288884812111111294924492289249124922449525462922449499224111111111191882289249244928a58492222228a8888200822222222452291284992224944224192244992240982a08808411004415044842008822028499292480982222222458888485292248988885090248004909422112122488248448808024800412422228224888848120490008244922448048924495092244544442322924824222288884824128988888888880812111149924892241189484422a892244999244992244992a4241149a2244549222222825445922465922449922489888808124922482489248888888888085292244992924412412491aa8c88882008222249a4148944224991a48848902449922449822028489294a020252941419294a4a088249192244922884824128944222211449048242212114992244912492212444424499224494411492212912449922489888888202222499224492222898888884892922448248948101191244992249122924424228948442422491289884824499224111111111111495292048988888824492422229124499244444444444424118988442449221111892449922422898848442449921491248a44221111111182888888888820222292244992249144242222494a499288882841922449924c12405290829268922425490541499252922449922449529252101111294912894444228888481249101191922449922449928294242922225a35499224499244242928499224499224091211912409122449aa444444239148248a444422888848922449922449922449922449121111914892242922222a4992244992942429888888942449499224495222294992244992248992244992922449922449922449929204051111112949129148444424111191242211111129494a222222221189244944929124894822892449922492489244442422229148444422888888884424221111912449222282489288888820128944221111914824222211444424499248241291081289888848242222114444244992882011111191082291888824294992888888a68294204922252949494a929420922429491295244949929424291291489224499248525292922429912492484912405245242249524a529294929424494a922449494a494a92284992242944444484888892a4aa242922228a44241211914824222251922449494a92242549922425a592244991942a4992244922494a4992a424494a92a4244952454444111111111125498a8848522222a28888489252914824122549522222a2244524498988885292222222a22449524444942491444a499224494a494a9252129124498aa4524a5292242922222229254992444992244989888892244992524992a42489548a4844528a8888922449aa888824498a88485292242991a42449214225a952909224499224499224499224499224499224499224499224499224499224499224a94a524a49525292a02a2529499224499224499224499224499224499224499224494a92a424552549aa24552529495292a42425a9aa4a9224a54a928a8a142952a4489122458a142952a44891a2448a88884a9224082161284d9224a9a49224492a2900","linkReferences":{}},"methodIdentifiers":{"getMessage(uint64)":"539ca17a","getMessageCount()":"31933916","getReceivedMessages(address)":"50b4d1fc","getSentMessages(address)":"8602def6","storeMessage(string,string,string,uint64,address)":"edd882c0"},"id":0}